:020000020000FC
:1000000008E00EBF0FE50DBF0FEF0ABB0FE007BB07
:100010000EEF08BB01E00E9433000BBB0E942900D9
:100020000DEF08BB04E00E9433000BBB0E942900C7
:100030000BEF08BB00E00E9433000BBB0E942900BD
:1000400007EF08BB00E00E9433000BBB0E942900B1
:10005000DFCF11E025E13FEF3A95F1F72A95D9F787
:100060001A95C1F70895003011F40FE30895013097
:1000700011F406E00895023011F40BE50895033001
:1000800011F40FE40895043011F406E608950530E4
:1000900011F40DE60895063011F40DE708950730C8
:1000A00011F407E00895083011F40FE708950930BE
:0600B00009F40FE60895BB
:00000001FF
