:020000020000FC
:1000000008E00EBF0FE50DBF0FEF04BB0FE001BB13
:1000100050E060E070E080E09FE007EF02BB052F5A
:100020000E946D0005BB0E9463000BEF02BB062F10
:100030000E946D0005BB0E9463000DEF02BB072FFD
:100040000E946D0005BB0E9463000EEF02BB082FEB
:100050000E946D0005BB0E9463009A95F1F69FE037
:1000600009B30030E9F453955A3009F0D6CF50E087
:1000700063956A3009F0D1CF60E073957A3009F06A
:10008000CCCF70E083958A3009F0C7CF50E060E0B4
:1000900070E080E0C2CF59E069E079E089E0BDCF4F
:1000A0005A955F3F09F0B9CF59E06A956F3F09F063
:1000B000B4CF69E07A957F3F09F0AFCF79E08A95B8
:1000C0008F3F49F3AACF11E021E13FEF3A95F1F7D5
:1000D0002A95D9F71A95C1F70895003011F40FE366
:1000E0000895013011F406E00895023011F40BE593
:1000F0000895033011F40FE40895043011F406E676
:100100000895053011F40DE60895063011F40DE759
:100110000895073011F407E00895083011F40FE74F
:0A0120000895093009F40FE6089570
:00000001FF
